{
  "address": "0x341c4c83c31cA134c7344745F17e915dde51c119",
  "abi": [
    {
      "inputs": [
        {
          "internalType": "address",
          "name": "priceFeedAddress",
          "type": "address"
        }
      ],
      "stateMutability": "nonpayable",
      "type": "constructor"
    },
    {
      "stateMutability": "payable",
      "type": "fallback"
    },
    {
      "inputs": [],
      "name": "MINIMUM_USD",
      "outputs": [
        {
          "internalType": "uint256",
          "name": "",
          "type": "uint256"
        }
      ],
      "stateMutability": "view",
      "type": "function"
    },
    {
      "inputs": [
        {
          "internalType": "address",
          "name": "",
          "type": "address"
        }
      ],
      "name": "addressToAmountFunded",
      "outputs": [
        {
          "internalType": "uint256",
          "name": "",
          "type": "uint256"
        }
      ],
      "stateMutability": "view",
      "type": "function"
    },
    {
      "inputs": [],
      "name": "fund",
      "outputs": [],
      "stateMutability": "payable",
      "type": "function"
    },
    {
      "inputs": [
        {
          "internalType": "uint256",
          "name": "",
          "type": "uint256"
        }
      ],
      "name": "funders",
      "outputs": [
        {
          "internalType": "address",
          "name": "",
          "type": "address"
        }
      ],
      "stateMutability": "view",
      "type": "function"
    },
    {
      "inputs": [],
      "name": "i_owner",
      "outputs": [
        {
          "internalType": "address",
          "name": "",
          "type": "address"
        }
      ],
      "stateMutability": "view",
      "type": "function"
    },
    {
      "inputs": [],
      "name": "priceFeed",
      "outputs": [
        {
          "internalType": "contract AggregatorV3Interface",
          "name": "",
          "type": "address"
        }
      ],
      "stateMutability": "view",
      "type": "function"
    },
    {
      "inputs": [],
      "name": "withDraw",
      "outputs": [],
      "stateMutability": "nonpayable",
      "type": "function"
    },
    {
      "stateMutability": "payable",
      "type": "receive"
    }
  ],
  "transactionHash": "0x01c95b73188683cc5024479199622d3d76a9322160428f31e179a27ab1433186",
  "args": [
    "0xD4a33860578De61DBAbDc8BFdb98FD742fA7028e"
  ],
  "numDeployments": 1,
  "solcInputHash": "c93b578cf0ac0414f2c2748e94308294",
  "bytecode": "0x60a060405234801561001057600080fd5b5060405162000ff338038062000ff383398181016040528101906100349190610115565b3373ffffffffffffffffffffffffffffffffffffffff1660808173ffffffffffffffffffffffffffffffffffffffff1660601b8152505080600260006101000a81548173ffffffffffffffffffffffffffffffffffffffff021916908373ffffffffffffffffffffffffffffffffffffffff16021790555050610142565b600080fd5b600073ffffffffffffffffffffffffffffffffffffffff82169050919050565b60006100e2826100b7565b9050919050565b6100f2816100d7565b81146100fd57600080fd5b50565b60008151905061010f816100e9565b92915050565b60006020828403121561012b5761012a6100b2565b5b600061013984828501610100565b91505092915050565b60805160601c610e8b62000168600039600081816102d301526105660152610e8b6000f3fe6080604052600436106100745760003560e01c8063741bef1a1161004e578063741bef1a1461010c578063b60d428814610137578063dba6335f14610141578063dc0d3dff1461016c57610083565b80630fdb1c101461008d5780633e47d6f3146100a45780636b69a592146100e157610083565b36610083576100816101a9565b005b61008b6101a9565b005b34801561009957600080fd5b506100a26102d1565b005b3480156100b057600080fd5b506100cb60048036038101906100c691906107ad565b61051a565b6040516100d891906107f3565b60405180910390f35b3480156100ed57600080fd5b506100f6610532565b60405161010391906107f3565b60405180910390f35b34801561011857600080fd5b5061012161053e565b60405161012e919061086d565b60405180910390f35b61013f6101a9565b005b34801561014d57600080fd5b50610156610564565b6040516101639190610897565b60405180910390f35b34801561017857600080fd5b50610193600480360381019061018e91906108de565b610588565b6040516101a09190610897565b60405180910390f35b674563918244f400006101e7600260009054906101000a900473ffffffffffffffffffffffffffffffffffffffff16346105c790919063ffffffff16565b1015610228576040517f08c379a000000000000000000000000000000000000000000000000000000000815260040161021f90610968565b60405180910390fd5b6000339080600181540180825580915050600190039060005260206000200160009091909190916101000a81548173ffffffffffffffffffffffffffffffffffffffff021916908373ffffffffffffffffffffffffffffffffffffffff16021790555034600160003373ffffffffffffffffffffffffffffffffffffffff1673ffffffffffffffffffffffffffffffffffffffff16815260200190815260200160002081905550565b7f000000000000000000000000000000000000000000000000000000000000000073ffffffffffffffffffffffffffffffffffffffff163373ffffffffffffffffffffffffffffffffffffffff161461035f576040517f08c379a0000000000000000000000000000000000000000000000000000000008152600401610356906109d4565b60405180910390fd5b60005b60008054905081101561040a576000808281548110610384576103836109f4565b5b9060005260206000200160009054906101000a900473ffffffffffffffffffffffffffffffffffffffff1690506000600160008373ffffffffffffffffffffffffffffffffffffffff1673ffffffffffffffffffffffffffffffffffffffff1681526020019081526020016000208190555050808061040290610a52565b915050610362565b50600067ffffffffffffffff81111561042657610425610a9b565b5b6040519080825280602002602001820160405280156104545781602001602082028036833780820191505090505b506000908051906020019061046a9291906106a3565b5060003373ffffffffffffffffffffffffffffffffffffffff164760405161049190610afb565b60006040518083038185875af1925050503d80600081146104ce576040519150601f19603f3d011682016040523d82523d6000602084013e6104d3565b606091505b5050905080610517576040517f08c379a000000000000000000000000000000000000000000000000000000000815260040161050e90610b5c565b60405180910390fd5b50565b60016020528060005260406000206000915090505481565b674563918244f4000081565b600260009054906101000a900473ffffffffffffffffffffffffffffffffffffffff1681565b7f000000000000000000000000000000000000000000000000000000000000000081565b6000818154811061059857600080fd5b906000526020600020016000915054906101000a900473ffffffffffffffffffffffffffffffffffffffff1681565b6000806105d383610603565b90506000670de0b6b3a764000085836105ec9190610b7c565b6105f69190610c05565b9050809250505092915050565b6000808273ffffffffffffffffffffffffffffffffffffffff1663feaf968c6040518163ffffffff1660e01b815260040160a06040518083038186803b15801561064c57600080fd5b505afa158015610660573d6000803e3d6000fd5b505050506040513d601f19601f820116820180604052508101906106849190610cc3565b5050509150506402540be4008161069b9190610d3e565b915050919050565b82805482825590600052602060002090810192821561071c579160200282015b8281111561071b5782518260006101000a81548173ffffffffffffffffffffffffffffffffffffffff021916908373ffffffffffffffffffffffffffffffffffffffff160217905550916020019190600101906106c3565b5b509050610729919061072d565b5090565b5b8082111561074657600081600090555060010161072e565b5090565b600080fd5b600073ffffffffffffffffffffffffffffffffffffffff82169050919050565b600061077a8261074f565b9050919050565b61078a8161076f565b811461079557600080fd5b50565b6000813590506107a781610781565b92915050565b6000602082840312156107c3576107c261074a565b5b60006107d184828501610798565b91505092915050565b6000819050919050565b6107ed816107da565b82525050565b600060208201905061080860008301846107e4565b92915050565b6000819050919050565b600061083361082e6108298461074f565b61080e565b61074f565b9050919050565b600061084582610818565b9050919050565b60006108578261083a565b9050919050565b6108678161084c565b82525050565b6000602082019050610882600083018461085e565b92915050565b6108918161076f565b82525050565b60006020820190506108ac6000830184610888565b92915050565b6108bb816107da565b81146108c657600080fd5b50565b6000813590506108d8816108b2565b92915050565b6000602082840312156108f4576108f361074a565b5b6000610902848285016108c9565b91505092915050565b600082825260208201905092915050565b7f446f6e27742073656e6420656e6f756768210000000000000000000000000000600082015250565b600061095260128361090b565b915061095d8261091c565b602082019050919050565b6000602082019050818103600083015261098181610945565b9050919050565b7f53656e646572206973206e6f74206f776e657221000000000000000000000000600082015250565b60006109be60148361090b565b91506109c982610988565b602082019050919050565b600060208201905081810360008301526109ed816109b1565b9050919050565b7f4e487b7100000000000000000000000000000000000000000000000000000000600052603260045260246000fd5b7f4e487b7100000000000000000000000000000000000000000000000000000000600052601160045260246000fd5b6000610a5d826107da565b91507fffffffffffffffffffffffffffffffffffffffffffffffffffffffffffffffff821415610a9057610a8f610a23565b5b600182019050919050565b7f4e487b7100000000000000000000000000000000000000000000000000000000600052604160045260246000fd5b600081905092915050565b50565b6000610ae5600083610aca565b9150610af082610ad5565b600082019050919050565b6000610b0682610ad8565b9150819050919050565b7f43616c6c206661696c6564000000000000000000000000000000000000000000600082015250565b6000610b46600b8361090b565b9150610b5182610b10565b602082019050919050565b60006020820190508181036000830152610b7581610b39565b9050919050565b6000610b87826107da565b9150610b92836107da565b9250817fffffffffffffffffffffffffffffffffffffffffffffffffffffffffffffffff0483118215151615610bcb57610bca610a23565b5b828202905092915050565b7f4e487b7100000000000000000000000000000000000000000000000000000000600052601260045260246000fd5b6000610c10826107da565b9150610c1b836107da565b925082610c2b57610c2a610bd6565b5b828204905092915050565b600069ffffffffffffffffffff82169050919050565b610c5581610c36565b8114610c6057600080fd5b50565b600081519050610c7281610c4c565b92915050565b6000819050919050565b610c8b81610c78565b8114610c9657600080fd5b50565b600081519050610ca881610c82565b92915050565b600081519050610cbd816108b2565b92915050565b600080600080600060a08688031215610cdf57610cde61074a565b5b6000610ced88828901610c63565b9550506020610cfe88828901610c99565b9450506040610d0f88828901610cae565b9350506060610d2088828901610cae565b9250506080610d3188828901610c63565b9150509295509295909350565b6000610d4982610c78565b9150610d5483610c78565b9250827f7fffffffffffffffffffffffffffffffffffffffffffffffffffffffffffffff0482116000841360008413161615610d9357610d92610a23565b5b817f80000000000000000000000000000000000000000000000000000000000000000583126000841260008413161615610dd057610dcf610a23565b5b827f80000000000000000000000000000000000000000000000000000000000000000582126000841360008412161615610e0d57610e0c610a23565b5b827f7fffffffffffffffffffffffffffffffffffffffffffffffffffffffffffffff0582126000841260008412161615610e4a57610e49610a23565b5b82820290509291505056fea264697066735822122030e94efcb7b051b80fe278b4f873421a16d4b9dbdae274f39b176907a92e50aa64736f6c63430008080033",
  "devdoc": {
    "kind": "dev",
    "methods": {},
    "version": 1
  },
  "userdoc": {
    "kind": "user",
    "methods": {},
    "version": 1
  },
  "storageLayout": {
    "storage": [
      {
        "astId": 59,
        "contract": "contracts/Fundme.sol:FundMe",
        "label": "funders",
        "offset": 0,
        "slot": "0",
        "type": "t_array(t_address)dyn_storage"
      },
      {
        "astId": 63,
        "contract": "contracts/Fundme.sol:FundMe",
        "label": "addressToAmountFunded",
        "offset": 0,
        "slot": "1",
        "type": "t_mapping(t_address,t_uint256)"
      },
      {
        "astId": 68,
        "contract": "contracts/Fundme.sol:FundMe",
        "label": "priceFeed",
        "offset": 0,
        "slot": "2",
        "type": "t_contract(AggregatorV3Interface)45"
      }
    ],
    "types": {
      "t_address": {
        "encoding": "inplace",
        "label": "address",
        "numberOfBytes": "20"
      },
      "t_array(t_address)dyn_storage": {
        "base": "t_address",
        "encoding": "dynamic_array",
        "label": "address[]",
        "numberOfBytes": "32"
      },
      "t_contract(AggregatorV3Interface)45": {
        "encoding": "inplace",
        "label": "contract AggregatorV3Interface",
        "numberOfBytes": "20"
      },
      "t_mapping(t_address,t_uint256)": {
        "encoding": "mapping",
        "key": "t_address",
        "label": "mapping(address => uint256)",
        "numberOfBytes": "32",
        "value": "t_uint256"
      },
      "t_uint256": {
        "encoding": "inplace",
        "label": "uint256",
        "numberOfBytes": "32"
      }
    }
  }
}